:100000000C9407010C9431010C9431010C943101D2
:100010000C9431010C9431010C9431010C94310198
:100020000C9431010C9431010C9431010C94310188
:100030000C9431010C9431010C9431010C94310178
:100040000C9431010C9431010C9431010C94310168
:100050000C9431010C9431010C9431010C94430344
:100060000C9431010C9431010C9431010C94310148
:100070000C9431010C9431010C9431010C94310138
:100080000C9431010C9431010C9431010C94310128
:100090000C9431010C9431010C9431010C94310118
:1000A0000C9431010C9431010C9431010C94310108
:1000B0000C9431010C9431010C9431010C943101F8
:1000C0000C9431010C9431010C9431010C943101E8
:1000D0000C9431010C9431010C9431010C943101D8
:1000E0000C9431017C017F0172017601B60183011C
:1000F00087018D01910195019B019F01A301B6012B
:10010000A901AD01B1010000090A02080B0C0D079D
:1001100006030401000000000000000000000000D1
:1001200000000000000000000000000000000000CF
:10013000000011100F00000000000000000000008F
:10014000000000000000000000000000000022008D
:10015000250028002B002E00310034000201000091
:10016000050108010B0100002100240027002A00DE
:100170002D003000330001010000040107010A01D5
:1001800005050505070508080808020202020A0A13
:100190000808040404040101010101010101030331
:1001A000030303030303040707070C0C0C0C0C0CDC
:1001B0000C0C0202020206060606060606060B0BD9
:1001C0000B0B0B0B0B0B010210202008081020401A
:1001D000102040800201020108040201010204080B
:1001E0001020408080402010080402018004020199
:1001F00080402010080402010804020101020408E2
:100200001020408001020408102040805304112473
:100210001FBECFEFD1E2DEBFCDBF12E0A0E0B2E063
:10022000E4E3F9E000E00BBF02C007900D92A032BA
:10023000B107D9F722E0A0E2B2E001C01D92AE33CF
:10024000B207E1F711E0C7E0D1E004C02197FE0159
:100250000E948F04C630D107C9F70E948D030C9409
:100260008C040C94000090E0FC01EA53FE4F2491B2
:10027000FC01E058FE4F8491882399F090E0880FAC
:10028000991FFC01EA59FE4FA591B491FC01E45B72
:10029000FE4F859194918FB7F894EC91E22BEC93FB
:1002A0008FBF08950895362F90E0FC01EA5FFE4F5E
:1002B0004491FC01EA53FE4F2491FC01E058FE4FAB
:1002C0008491882309F466C0442309F44FC050E0A8
:1002D000FA013197E131F10508F048C0EE58FF4FBF
:1002E0000C948F04909180009F7703C090918000C0
:1002F0009F7D909380003AC094B59F7702C094B5DB
:100300009F7D94BD33C09091B0009F7703C09091C2
:10031000B0009F7D9093B00029C0909190009F778E
:1003200007C0909190009F7D03C090919000977FAF
:10033000909390001BC09091A0009F7707C0909170
:10034000A0009F7D03C09091A000977F9093A00094
:100350000DC0909120019F7707C0909120019F7D53
:1003600003C090912001977F90932001E82FF0E047
:10037000EE0FFF1FE45BFE4FA591B4919FB7F89479
:10038000311104C08C912095282302C0EC912E2BB2
:100390002C939FBF0895CF93DF93EC0160E08E8193
:1003A0000E94530161E08E810E94530160E08E81C2
:1003B0000E9453018AE891E00197F1F7DF91CF9114
:1003C0000895AF92BF92CF92DF92EF92FF920F9378
:1003D0001F93CF93DF935C017C0187E0E80EF11C53
:1003E000C0E0D0E0062F10E06701F70181917F01A6
:1003F0000E943301B8010C2E02C0759567950A94CE
:10040000E2F76170F60180810E9453012196C430A9
:10041000D10551F7C501DF91CF911F910F91FF9049
:10042000EF90DF90CF90BF90AF900C94CB01AF9244
:10043000BF92CF92DF92EF92FF920F931F93CF93D1
:10044000DF93EC01F62E642F8C810E9453018D8185
:100450008F3F19F060E00E9453018F850F2D10E04F
:1004600084FF2CC05E0187E0A80EB11CE12CF12CAA
:100470006501F50181915F010E943301B8010E2CE5
:1004800002C0759567950A94E2F76170F601808164
:100490000E945301FFEFEF1AFF0A88E0E816F1040B
:1004A00039F7CE01DF91CF911F910F91FF90EF901F
:1004B000DF90CF90BF90AF900C94CB01B80184E057
:1004C000759567958A95E1F7CE010E94E1016F2D40
:1004D000CE01DF91CF911F910F91FF90EF90DF90B0
:1004E000CF90BF90AF900C94E10140E0682F89E27B
:1004F00092E00C941702CF93DF93823028F0909112
:10050000380298609093380280933C0210923D022A
:100510008AE39DE00197F1F760E080912D020E944F
:10052000530160E080912F020E94530180912E02BE
:100530008F3F19F060E00E9453018091380284FDE2
:1005400020C063E089E292E00E94E101CAE4D6E4BF
:10055000CE010197F1F763E089E292E00E94E101A8
:100560002197F1F763E089E292E00E94E10182E5E0
:1005700092E00197F1F762E089E292E00E94E101E6
:1005800015C080620E9475028AE496E40197F1F733
:100590008091380280620E94750282E592E00197A4
:1005A000F1F78091380280620E94750280913802D2
:1005B00080620E94750284E0809339028CE00E9480
:1005C000750281E00E9475028AE39FE10197F1F7CD
:1005D00082E080933A0286E0DF91CF910C9475021D
:1005E00041E00E94170281E090E00895CF92DF92EF
:1005F000EF92FF920F931F93CF93DF936C01EB0168
:100600007B01E40EF51E00E010E0CE15DF0561F081
:100610006991D601ED91FC910190F081E02DC60128
:100620000995080F191FF1CFC801DF91CF911F91D4
:100630000F91FF90EF90DF90CF9008953FB7F8941F
:100640008091250290912602A0912702B091280264
:1006500026B5A89B05C02F3F19F00196A11DB11D1D
:100660003FBFBA2FA92F982F8827820F911DA11D58
:10067000B11DBC01CD0142E0660F771F881F991F95
:100680004A95D1F708951F920F920FB60F92112439
:100690002F933F938F939F93AF93BF9380912102AA
:1006A00090912202A0912302B09124023091200265
:1006B00023E0230F2D3720F40196A11DB11D05C0A5
:1006C00026E8230F0296A11DB11D209320028093DE
:1006D000210290932202A0932302B09324028091DE
:1006E000250290912602A0912702B091280201963E
:1006F000A11DB11D8093250290932602A09327028D
:10070000B0932802BF91AF919F918F913F912F910C
:100710000F900FBE0F901F901895CF93DF93CDB71A
:10072000DEB728970FB6F894DEBF0FBECDBF789422
:1007300084B5826084BD84B5816084BD85B58260E6
:1007400085BD85B5816085BD80916E008160809397
:100750006E00109281008091810082608093810000
:100760008091810081608093810080918000816010
:10077000809380008091B10084608093B10080916B
:10078000B00081608093B00080919100826080937E
:100790009100809191008160809391008091900000
:1007A0008160809390008091A10082608093A1007D
:1007B0008091A10081608093A1008091A000816060
:1007C0008093A0008091210182608093210180911B
:1007D00021018160809321018091200181608093BB
:1007E000200180917A00846080937A0080917A0061
:1007F000826080937A0080917A00816080937A0091
:1008000080917A00806880937A001092C10082E023
:100810000E947B0290E0E92E90E0F92E4EE050E03D
:1008200060E172E089E292E00E94F6020E941E03FB
:100830008B0188EB882E8BE0982EA12CB12C0E9486
:100840001E03601B710B683E7340C8F381E0881A79
:100850009108A108B10808511C4F81149104A1040A
:10086000B10469F788E0E0E0F2E0DE011196019062
:100870000D928A95E1F780913C02823010F481500C
:1008800001C081E0FE013196E80FF11DE80FF11D76
:10089000808180680E947502E114F10409F4BECFE2
:1008A0000E940000BBCF10922C0210922B028CE011
:1008B00092E090932A028093290281E080932D0296
:1008C0008FEF80932E0282E080932F0284E080934A
:1008D000300285E08093310286E08093320287E027
:1008E0008093330210923402109235021092360235
:1008F0001092370281E00E94330180912E028F3FD7
:1009000011F00E94330180912F020E943301109256
:10091000380281E00C947B02F8940C949804EE0F5A
:10092000FF1F0024001C0BBE0790F691E02D0994D8
:04093000F894FFCF69
:10093400000040001400540000000000F002F60221
:100944006B696C6C206D6520706C6561736500006B
:00000001FF
