:100000000C9407010C9431010C9431010C943101D2
:100010000C9431010C9431010C9431010C94310198
:100020000C9431010C9431010C9431010C94310188
:100030000C9431010C9431010C9431010C94310178
:100040000C9431010C94F0070C9431010C943101A3
:100050000C9431010C9431010C9431010C941C0767
:100060000C94E6090C94B3090C94DB080C94310150
:100070000C9431010C9431010C9431010C94310138
:100080000C94C2070C9431010C9431010C94310191
:100090000C9480090C949C080C9431010C94ED058F
:1000A0000C9431010C9431010C9494070C9431019F
:1000B0000C9431010C9431010C9431010C946607BD
:1000C0000C9431010C9431010C9431010C944D09C4
:1000D0000C945D080C9431010C941A090C941E08C0
:1000E0000C9431010C040F040204060446041304AA
:1000F00017041D04210425042B042F043304460493
:1001000039043D0441040000090A02080B0C0D07E4
:1001100006030401000000000000000000000000D1
:1001200000000000000000000000000000000000CF
:10013000000011100F00000000000000000000008F
:10014000000000000000000000000000000022008D
:10015000250028002B002E00310034000201000091
:10016000050108010B0100002100240027002A00DE
:100170002D003000330001010000040107010A01D5
:1001800005050505070508080808020202020A0A13
:100190000808040404040101010101010101030331
:1001A000030303030303040707070C0C0C0C0C0CDC
:1001B0000C0C0202020206060606060606060B0BD9
:1001C0000B0B0B0B0B0B010210202008081020401A
:1001D000102040800201020108040201010204080B
:1001E0001020408080402010080402018004020199
:1001F00080402010080402010804020101020408E2
:10020000102040800102040810204080190A1124A7
:100210001FBECFEFD1E2DEBFCDBF12E0A0E0B2E063
:10022000E6EAFCE100E00BBF02C007900D92A034AB
:10023000B107D9F727E0A0E4B2E001C01D92A13CCC
:10024000B207E1F711E0C7E0D1E004C02197FE0159
:100250000E94480EC630D107C9F70E94990B0C9432
:10026000D60D0C94000090E0FC01EA53FE4F24915F
:10027000FC01E058FE4F8491882399F090E0880FAC
:10028000991FFC01EA59FE4FA591B491FC01E45B72
:10029000FE4F859194918FB7F894EC91E22BEC93FB
:1002A0008FBF089585ED8093BC008091BC0084FDD4
:1002B000FCCF109250040895613298F420915004BC
:1002C000243089F460932A04282FA8E0B4E0FC01CC
:1002D0008E2F821B861718F481918D93F9CF80E0C1
:1002E000089581E0089582E0089508950895CF93D8
:1002F000DF93AC01E091FB03F091FC033097F1F048
:100300009091FA038091F9039817C0F090E0292F9B
:1003100030E02617370754F4D901A752BC4FEA0141
:10032000C20FD31F28812C939F5FF1CF1092FA0345
:100330006093F903CB01DF91CF910994DF91CF91C5
:1003400008950895E091FA038091F903E81730F4D5
:10035000F0E0E752FC4F808190E008958FEF9FEF2F
:1003600008959091FA038091F903981750F4E92FBA
:10037000F0E0E752FC4F208130E09F5F9093FA035A
:1003800002C02FEF3FEFC90108958091F90390E07B
:100390002091FA03821B91090895CF93DF93CB013B
:1003A000EA01642F0E945C01CE01DF91CF91089594
:1003B000CF93DF931F92CDB7DEB7698361E0CE01A3
:1003C00001960E945C0181E090E00F90DF91CF9157
:1003D0000895CF92DF92EF92FF92CF93DF93EC01DB
:1003E000603282E078070CF03DC077FD06C0653BC7
:1003F00071052CF064EB70E002C060E070E0898170
:1004000028E830E06901C81AD10887FDD394CC0CE4
:10041000DD1CCC0CDD1C0D2C000CEE08FF088A81C5
:1004200028E532E0281B310987FD3395220F331F61
:10043000220F331FC901330FAA0BBB0B9C01AD0167
:100440002C193D094E095F09DB010E94030E24EBC4
:1004500030E040E050E00E94D90DC20ED31EE41EF1
:10046000F51EB6013881303380F5298188E890E0A7
:10047000821B910927FD9395880F991F880F991F5B
:100480006817790784F08A8148E552E0481B5109D2
:1004900087FD5395440F551F440F551FCB01461739
:1004A00057070CF4CA014FB7F894232F30E0F90135
:1004B000EE0FFF1F2E0F3F1FF901E65DF84F029769
:1004C000880F991F928381834FBFDF91CF91FF9057
:1004D000EF90DF90CF9008951F93CF93DF93EC01BF
:1004E000162F8881803308F04DC0862F0E9433017B
:1004F0008881E82FF0E09F01220F331FE20FF31FE6
:10050000E65DF84F1F739081907C192B1083198240
:100510001A826CE00E943C0E9CE0899FB00111247D
:1005200040E050E09B01240F351FF901EE0FFF1F43
:100530002E0F3F1FF901E65DF84F908196FD16C022
:100540004F5F5F4F4C30510569F7813001F51092D4
:10055000800082E0809381001092850010928400D8
:10056000B19A80916F00826080936F00E881F0E023
:10057000CF01880F991FE80FF91FE65DF84F8081C2
:10058000806480838881DF91CF911F9108958230AC
:1005900061F4109290008093910010929500109257
:1005A000940088BB80937100E1CF833069F410928E
:1005B000A00082E08093A1001092A5001092A400F8
:1005C00089BB80937200D2CF8111D0CF10922001CD
:1005D00082E08093210110922501109224018ABBB0
:1005E00080937300C3CF0F931F93CF93DF93FC01CE
:1005F000A685B7858D01005C1F4FE8018881998130
:1006000001968F739927AD014E5B5F4FEA012881F8
:10061000398128173907D1F3E80128813981A20FE0
:10062000B31F6C93A685B785A05CBF4F11969C93B2
:100630008E93A689B7892C9181E090E0078C02C047
:10064000880F991F0A94E2F7822B8C9381E081A393
:100650000488F589E02D80818064808381E090E0CA
:10066000DF91CF911F910F910895682F88E097E057
:100670000C94F302FC0181A1882329F0A489B58997
:100680008C9186FFFBCF11A20895FC01A485B5854E
:10069000FD01E05CFF4F20813181329680819181A4
:1006A0002817390779F080819181A80FB91F8C91A3
:1006B000208131812F5F3F4F2F7333273183208378
:1006C00090E008958FEF9FEF0895DC011C96ED9167
:1006D000FC911D97DF01A05CBF4F2D913C911197BC
:1006E00012968D919C9111972817390739F08D91A9
:1006F0009C91E80FF91F808190E008958FEF9FEFA4
:100700000895FC0124853585F901E05CFF4F808167
:100710009181329620813181821B930B8F739927AF
:10072000089588E097E00E9481038EE596E00E949C
:10073000810384EB95E00E9481038AE095E00C94AC
:100740008103FB01E05CFF4F20813181DB01AE5B67
:10075000BF4F4D915C912F5F3F4F2F73332742174F
:10076000530741F040815181DB01A40FB51F8C93E9
:10077000318320830895CF92DF92EF92FF920F93FF
:100780001F93CF93DF936C01EB017B01E40EF51E09
:1007900000E010E0CE15DF0561F06991D601ED9122
:1007A000FC910190F081E02DC6010995080F191FF9
:1007B000F1CFC801DF91CF911F910F91FF90EF9082
:1007C000DF90CF900895362F90E0FC01EA5FFE4F56
:1007D0004491FC01EA53FE4F2491FC01E058FE4F86
:1007E0008491882309F466C0442309F44FC050E083
:1007F000FA013197E131F10508F048C0EE58FF4F9A
:100800000C94480E909180009F7703C090918000D7
:100810009F7D909380003AC094B59F7702C094B5B5
:100820009F7D94BD33C09091B0009F7703C090919D
:10083000B0009F7D9093B00029C0909190009F7769
:1008400007C0909190009F7D03C090919000977F8A
:10085000909390001BC09091A0009F7707C090914B
:10086000A0009F7D03C09091A000977F9093A0006F
:100870000DC0909120019F7707C0909120019F7D2E
:1008800003C090912001977F90932001E82FF0E022
:10089000EE0FFF1FE45BFE4FA591B4919FB7F89454
:1008A000311104C08C912095282302C0EC912E2B8D
:1008B0002C939FBF0895CF92DF92EF92FF920F93F8
:1008C0001F93CF93DF936C018B017A01EC01CB5224
:1008D000DC4F888187FF04C0FB011182108224C095
:1008E0002CE02C9DC0012D9D900D11242881AC0180
:1008F000420F511D27FD5A952091BA0730E042174B
:10090000530794F42881AC01420F511D27FD5A95DD
:100910009A01FA01EE0FFF1F2E0F3F1FF901E65D4E
:10092000F84F208126FD19C088818F5F88832CE0D5
:100930002C9DC0012D9D900D11242881AC01420FEA
:10094000511D27FD5A952091BA0730E042175307F1
:10095000BCF428812C3044F113C02881820F911DF2
:1009600027FD9A95FC01EE0FFF1F8E0F9F1FFC01C4
:10097000E65DF84F808160E08F730E94E303D4CF7F
:10098000F80180819181049680349C4918F480E4B8
:100990009CE904C0F801808191810496F70191835C
:1009A00080838FEF888345C0F80140815181288181
:1009B000BC01620F711D27FD7A959B01FB01EE0FB3
:1009C000FF1F2E0F3F1FF901E65DF84F2181328195
:1009D000240F351FF701318320832881AC01420F9A
:1009E000511D27FD5A959A01FA01EE0FFF1F2E0F98
:1009F0003F1FF901E65DF84F208126FF1AC02881CC
:100A0000820F911D27FD9A95FC01EE0FFF1F8E0F9F
:100A10009F1FFC01E65DF84F808161E08F73DF91DD
:100A2000CF911F910F91FF90EF90DF90CF900C949A
:100A3000E303DF91CF911F910F91FF90EF90DF9033
:100A4000CF9008953091F9032091FA03321729F0DD
:100A500086E794E00E94B101F5CF2091D303283CB2
:100A6000B8F42091080330910903A9014F5F5F4F4B
:100A70005093090340930803220F331FF901E05CF0
:100A8000FD4F918380830A9719F481E080930A03D4
:100A90000895CF93DF9300D000D01F92CDB7DEB77B
:100AA0005A836B837C838D838A819B816C817D815A
:100AB000433541F01CF44434D9F023C04436C1F02E
:100AC0004337F9F4653B7105E0F48C30910519F476
:100AD0008EEB97E004C00B97A1F48BEB97E00F909F
:100AE0000F900F900F900F90DF91CF910C94E90130
:100AF0000F900F900F900F900F90DF91CF910C946B
:100B0000E3030F900F900F900F900F90DF91CF9114
:100B10000895009769F0FC0101900020E9F73197F2
:100B2000AF01481B590BBC0188E097E00C94BB0354
:100B300080E090E008950F931F93CF93DF930E947E
:100B400089058C018DE00E943503EC018AE00E944A
:100B50003503C00FD11F8C0F9D1FDF91CF911F91C7
:100B60000F9108950F931F93CF93DF93CDB7DEB707
:100B7000A1970FB6F894DEBF0FBECDBFAC01990FA1
:100B8000660B770B19A2CE0181968A019B0154E076
:100B900036952795179507955A95D1F7E0E10E9F61
:100BA0004019112401974A3014F4405D01C0495C9A
:100BB000FC014083B901A801012B022B032B29F76B
:100BC0000E948905A1960FB6F894DEBF0FBECDBF77
:100BD000DF91CF911F910F9108951F920F920FB641
:100BE0000F9211240BB60F922F933F934F935F9365
:100BF0006F937F938F939F93AF93BF93EF93FF93E5
:100C00008091B900887F803609F49CC068F58832ED
:100C100009F45BC090F4803109F454C038F488239F
:100C200009F4F3C0883009F44DC0F3C0883109F4E9
:100C30004CC0803209F45DC0ECC0803409F468C057
:100C400048F4803309F455C0883309F0E2C080933A
:100C50004F04D5C0803509F44FC0883509F45DC014
:100C6000883409F0D6C0D3C0883909F4C4C0A8F4C8
:100C7000883709F467C038F4883609F463C08037D0
:100C800009F460C0C6C0883809F4B5C0803909F4D9
:100C90005FC0803809F0BDC05BC0803B09F483C0F1
:100CA00038F4803A09F466C0883A09F47CC0B1C0CF
:100CB000803C09F4A4C0883C09F4A1C0883B09F435
:100CC00087C0A7C08091750410C090917404809172
:100CD0007304981770F5E091740481E08E0F80938F
:100CE0007404F0E0ED5AFB4F80818093BB0085ECEB
:100CF00083C080934F048BC0E091740481E08E0F19
:100D0000809374048091BB00F0E0ED5AFB4F808328
:100D100090917404809173046BC0E091740481E03D
:100D20008E0F809374048091BB00F0E0ED5AFB4F6E
:100D300080838091520481116AC081E080935104C4
:100D400084EA5EC083E08093500410924E04CFCFBB
:100D500080914E04803208F04EC0E0914E0481E054
:100D60008E0F80934E048091BB00F0E0E25DFB4F5C
:100D70008083BDCF80914E04803230F4E0914E04E8
:100D8000F0E0E25DFB4F10820E94520160914E0440
:100D900070E0E0912C04F0912D048EE294E009952E
:100DA00010924E042CC084E08093500410922B04C7
:100DB00010922A04E0912804F09129040995809169
:100DC0002A04811105C081E080932A04109208044E
:100DD000E0912B0481E08E0F80932B04F0E0E85F1C
:100DE000FB4F80818093BB0090912B0480912A045B
:100DF000981708F47CCF85E88093BC000AC085EC86
:100E00008093BC001092500404C010924F040E94C2
:100E10005201FF91EF91BF91AF919F918F917F917F
:100E20006F915F914F913F912F910F900BBE0F905B
:100E30000FBE0F901F9018951F920F920FB60F9232
:100E400011242F933F938F939F93AF93BF938091E0
:100E5000040490910504A0910604B0910704309118
:100E6000030423E0230F2D3720F40196A11DB11DAB
:100E700005C026E8230F0296A11DB11D209303048F
:100E80008093040490930504A0930604B093070490
:100E90008091FF0390910004A0910104B09102049D
:100EA0000196A11DB11D8093FF0390930004A093B0
:100EB0000104B0930204BF91AF919F918F913F9134
:100EC0002F910F900FBE0F901F9018951F920F92A9
:100ED0000FB60F9211240BB60F922F933F934F939F
:100EE0005F936F937F938F939F93AF93BF93EF9392
:100EF000FF9348E251E064E271E080E090E00E94FC
:100F00005B04FF91EF91BF91AF919F918F917F9182
:100F10006F915F914F913F912F910F900BBE0F906A
:100F20000FBE0F901F9018951F920F920FB60F9241
:100F300011240BB60F922F933F934F935F936F93B0
:100F40007F938F939F93AF93BF93EF93FF9348EA61
:100F500050E064EA70E083E090E00E945B04FF915F
:100F6000EF91BF91AF919F918F917F916F915F9121
:100F70004F913F912F910F900BBE0F900FBE0F908E
:100F80001F9018951F920F920FB60F9211240BB657
:100F90000F922F933F934F935F936F937F938F9312
:100FA0009F93AF93BF93EF93FF9348E950E064E9B9
:100FB00070E082E090E00E945B04FF91EF91BF91AE
:100FC000AF919F918F917F916F915F914F913F91E1
:100FD0002F910F900BBE0F900FBE0F901F90189582
:100FE0001F920F920FB60F9211240BB60F922F93F0
:100FF0003F934F935F936F937F938F939F93AF93A1
:10100000BF93EF93FF9348E850E064E870E081E01D
:1010100090E00E945B04FF91EF91BF91AF919F918F
:101020008F917F916F915F914F913F912F910F9091
:101030000BBE0F900FBE0F901F9018951F920F922E
:101040000FB60F9211240BB60F922F933F938F93ED
:101050009F93EF93FF932091C2043091C30480913A
:10106000C4049091C5042817390731F480913101E7
:101070008F7D8093310114C0E091C404F091C504C8
:10108000EE57FB4F20818091C4049091C5040196D6
:101090008F7399279093C5048093C40420933601DD
:1010A000FF91EF919F918F913F912F910F900BBEE8
:1010B0000F900FBE0F901F9018951F920F920FB6B2
:1010C0000F9211240BB60F922F933F938F939F9300
:1010D000EF93FF9320916C0530916D0580916E0523
:1010E00090916F052817390731F48091D1008F7DD9
:1010F0008093D10014C0E0916E05F0916F05E45D1E
:10110000FA4F208180916E0590916F0501968F7343
:10111000992790936F0580936E052093D600FF91D9
:10112000EF919F918F913F912F910F900BBE0F9058
:101130000FBE0F901F9018951F920F920FB60F922F
:1011400011240BB60F922F933F938F939F93EF939E
:10115000FF93209116063091170680911806909102
:1011600019062817390731F48091C9008F7D8093C3
:10117000C90014C0E0911806F0911906EA52FA4F1E
:101180002081809118069091190601968F739927F6
:1011900090931906809318062093CE00FF91EF914B
:1011A0009F918F913F912F910F900BBE0F900FBE8B
:1011B0000F901F9018951F920F920FB60F92112447
:1011C0000BB60F922F933F938F939F93EF93FF93C1
:1011D0002091C0063091C1068091C2069091C3064D
:1011E0002817390731F48091C1008F7D8093C100A9
:1011F00014C0E091C206F091C306E058F94F208177
:101200008091C2069091C30601968F73992790939F
:10121000C3068093C2062093C600FF91EF919F9171
:101220008F913F912F910F900BBE0F900FBE0F909B
:101230001F9018951F920F920FB60F9211240BB6A4
:101240000F922F933F934F935F936F937F938F935F
:101250009F93AF93BF93EF93FF938091300182FDF3
:1012600007C08091360166EC74E00E94A10302C0C1
:1012700080913601FF91EF91BF91AF919F918F9136
:101280007F916F915F914F913F912F910F900BBE86
:101290000F900FBE0F901F9018951F920F920FB6D0
:1012A0000F9211240BB60F922F933F934F935F939E
:1012B0006F937F938F939F93AF93BF93EF93FF931E
:1012C0008091D00082FD07C08091D60060E775E074
:1012D0000E94A10302C08091D600FF91EF91BF91BF
:1012E000AF919F918F917F916F915F914F913F91BE
:1012F0002F910F900BBE0F900FBE0F901F9018955F
:101300001F920F920FB60F9211240BB60F922F93CC
:101310003F934F935F936F937F938F939F93AF937D
:10132000BF93EF93FF938091C80082FD07C0809127
:10133000CE006AE176E00E94A10302C08091CE0057
:10134000FF91EF91BF91AF919F918F917F916F919D
:101350005F914F913F912F910F900BBE0F900FBE59
:101360000F901F9018951F920F920FB60F92112495
:101370000BB60F922F933F934F935F936F937F938F
:101380008F939F93AF93BF93EF93FF938091C00090
:1013900082FD07C08091C60064EC76E00E94A10344
:1013A00002C08091C600FF91EF91BF91AF919F91D4
:1013B0008F917F916F915F914F913F912F910F90FE
:1013C0000BBE0F900FBE0F901F9018951F920F929B
:1013D0000FB60F9211240BB60F922F933F938F935A
:1013E0009F93EF93FF938EB59091D303983CA0F415
:1013F000E091D30391E09E0F9093D303F0E0EE0FC2
:10140000FF1FE55FFC4F282F30E0318320838A30B7
:1014100019F481E08093D403FF91EF919F918F9114
:101420003F912F910F900BBE0F900FBE0F901F900A
:101430001895CF93DF93109279041092780488EE78
:1014400093E0A0E0B0E080937A0490937B04A093B3
:101450007C04B0937D0424E032E030937704209341
:10146000760410920B0710920A0780930C07909352
:101470000D07A0930E07B0930F07E4E1F2E0F0939D
:101480000907E093080724EC36E030931507209312
:10149000140720E836E0309317072093160725EC51
:1014A00030E0309319072093180724EC30E0309394
:1014B0001B0720931A0720EC30E030931D07209380
:1014C0001C0721EC30E030931F0720931E0722EC0D
:1014D00030E0309321072093200726EC30E0309352
:1014E00023072093220764E06093240753E050937E
:1014F000250747E04093260735E03093270721E092
:10150000209328071092610610926006809362066D
:1015100090936306A0936406B0936506F0935F060C
:10152000E0935E06CAE1D6E0D0936B06C0936A06EC
:10153000C6EDD5E0D0936D06C0936C06CDECD0E03F
:10154000D0936F06C0936E06CCECD0E0D0937106BA
:10155000C0937006C8ECD0E0D0937306C0937206B7
:10156000C9ECD0E0D0937506C0937406CAECD0E005
:10157000D0937706C0937606CEECD0E0D093790670
:10158000C093780660937A0650937B0640937C065E
:1015900030937D0620937E061092B7051092B60513
:1015A0008093B8059093B905A093BA05B093BB0595
:1015B000F093B505E093B405C0E7D5E0D093C1053D
:1015C000C093C005CCE2D5E0D093C305C093C2055B
:1015D000C5EDD0E0D093C505C093C405C4EDD0E0FF
:1015E000D093C705C093C605C0EDD0E0D093C90520
:1015F000C093C805C1EDD0E0D093CB05C093CA0518
:10160000C2EDD0E0D093CD05C093CC05C6EDD0E0BF
:10161000D093CF05C093CE056093D0055093D105EC
:101620004093D2053093D3052093D40510920D0535
:1016300010920C0580930E0590930F05A093100552
:10164000B0931105F0930B05E0930A0586EC94E046
:10165000909317058093160582E894E090931905FE
:101660008093180585E391E090931B0580931A05FC
:1016700084E391E090931D0580931C0580E391E045
:1016800090931F0580931E0581E391E090932105BF
:101690008093200582E391E09093230580932205B7
:1016A00086E391E0909325058093240560932605B9
:1016B00050932705409328053093290520932A0548
:1016C0008091BA078033A0F491E0980F9093BA0705
:1016D0008093BE0790E0FC01EE0FFF1F8E0F9F1F4F
:1016E000FC01E65DF84F88EB9BE09283818303C0A9
:1016F0008FEF8093BE078091BA078033A0F491E00A
:10170000980F9093BA078093BB0790E0FC01EE0F0F
:10171000FF1F8E0F9F1FFC01E65DF84F88EB9BE0DB
:101720009283818303C08FEF8093BB07DF91CF91BA
:101730000895CF93DF93CDB7DEB72C970FB6F8940B
:10174000DEBF0FBECDBF789484B5826084BD84B502
:10175000816084BD85B5826085BD85B5816085BDAC
:1017600080916E00816080936E0010928100809164
:1017700081008260809381008091810081608093EC
:101780008100809180008160809380008091B10011
:1017900084608093B1008091B00081608093B0003C
:1017A000809191008260809391008091910081608E
:1017B000809391008091900081608093900080914F
:1017C000A10082608093A1008091A100816080933C
:1017D000A1008091A00081608093A00080912101F0
:1017E0008260809321018091210181608093210199
:1017F0008091200181608093200180917A00846033
:1018000080937A0080917A00826080937A00809140
:101810007A00816080937A0080917A00806880935A
:101820007A001092C100E0911C07F0911D0781E041
:1018300090E09C010090280702C0220F331F0A94F9
:10184000E2F72083E0911807F09119071082E091E8
:101850001A07F0911B0720E1208310922907E091DD
:101860001E07F0911F0740819C010090240702C0D1
:10187000220F331F0A94E2F7242B2083E0911E07E6
:10188000F0911F0740819C010090250702C0220FA4
:10189000331F0A94E2F7242B2083E0911E07F09176
:1018A0001F0740819C010090260702C0220F331FB2
:1018B0000A94E2F7242B2083E0911E07F0911F0782
:1018C00020810090270702C0880F991F0A94E2F731
:1018D0008095822380836CE070E08EEB97E00E941D
:1018E0006C026AE570E08EEB97E00E94E9016BE024
:1018F00070E08BEB97E00E946C026AE570E08BEB86
:1019000097E00E94E90182E30E9433018CB5806870
:101910008CBD1092D3038CB580648CBD88E080931D
:10192000BA0086E791E0909329048093280487E722
:1019300091E090932D0480932C041092FA0310925E
:10194000F9031092FE031092FD031092500481E0FF
:10195000809352041092510461E084E10E94E303F9
:1019600061E085E10E94E3038091B9008E7F80935E
:10197000B9008091B9008D7F8093B90088E480938D
:10198000B80085E48093BC0082E295E09093FC036C
:101990008093FB0310920A031092D4038091D40326
:1019A000882309F469C0E091D303F0E0EE0FFF1F34
:1019B000E55FFC4F1182108261E08DE00E94E3033D
:1019C00060E08DE00E94E30380E292E00E948905DE
:1019D0002BE0E22E23E0F22E00E010E08091D30312
:1019E00090E0801791079CF16701F7018191919137
:1019F0007F010E94B20586E292E00E948905F6010D
:101A00008081918198012F5F3F4F8E379105E9F4D6
:101A10008091D30390E0081719071CF4F701F081B7
:101A2000FC878091D30390E0281739071CF4F70155
:101A3000428053808091D30390E00E5F1F4F0817C0
:101A400019071CF4F701248035808901C7CF8AE08B
:101A50000E943503FC85FE8358864F823A8629868C
:101A60001092D3031092D40361E08DE00E94E3034F
:101A700089E292E00E949B0580910A03882309F481
:101A800084C089E392E00E94890500E412E03801F5
:101A9000C12CD12CE0900803F0900903EC14FD0454
:101AA00074F0F301819191913F010E94B20586E2A9
:101AB00092E00E948905FFEFCF1ADF0AEBCF8AE0A0
:101AC0000E943503F701EE0FFF1FE05CFD4F11820E
:101AD0001082E12CF12C80910803909109038E155E
:101AE0009F057CF16801F801819191918F010E941D
:101AF000B20586E292E00E948905F601808191811B
:101B000097012F5F3F4F8E379105C9F480910803ED
:101B100090910903E816F9061CF4F801F081FB879F
:101B2000281739071CF4F80182809380F2E0EF0E49
:101B3000F11CE816F9061CF4F801A480B5807901BF
:101B4000CACFFB858F2FFF0F990B0E94B20587E24A
:101B500092E00E948905C4010E94B20587E292E0EA
:101B60000E948905C5010E94B20587E292E00E94A9
:101B70009B052B8529839B828A82BD82AC82109231
:101B800009031092080310920A034E815F81688551
:101B900079858A850E94490549815A816B817C81BA
:101BA0008D810E9449050E949103F8CEF8940C940F
:101BB000510E052E97FB1EF400940E94F00D57FD68
:101BC00007D00E940B0E07FC03D04EF40C94F00DCE
:101BD00050954095309521953F4F4F4F5F4F089559
:101BE00090958095709561957F4F8F4F9F4F089589
:101BF0000E942D0EA59F900DB49F900DA49F800D67
:101C0000911D11240895B7FF0C94F80D0E94F80D52
:101C1000821B930B0895A1E21A2EAA1BBB1BFD0188
:101C20000DC0AA1FBB1FEE1FFF1FA217B307E407BB
:101C3000F50720F0A21BB30BE40BF50B661F771F13
:101C4000881F991F1A9469F76095709580959095F3
:101C50009B01AC01BD01CF010895A29FB001B39FCC
:101C6000C001A39F700D811D1124911DB29F700DA5
:101C7000811D1124911D0895991B79E004C0991FBD
:101C8000961708F0961B881F7A95C9F780950895D6
:101C9000EE0FFF1F0024001C0BBE0790F691E02DF5
:061CA0000994F894FFCF47
:101CA60000000000D801CD01C501B101A201A101CA
:101CB60000000000F302BB038103450365033A03FA
:101CC6005350493A20002C2000676F7420737069C6
:101CD600206D657373616765006932633A200000A1
:00000001FF
