:100000000C9407010C9431010C9431010C943101D2
:100010000C9431010C9431010C9431010C94310198
:100020000C9431010C9431010C9431010C94310188
:100030000C9431010C9431010C9431010C94310178
:100040000C9431010C9410070C9431010C94310183
:100050000C9431010C9431010C9431010C945F0C1F
:100060000C9455090C9414050C943C040C94310127
:100070000C9431010C9431010C9431010C94310138
:100080000C94E2060C9431010C9431010C94310172
:100090000C94E1040C94FD030C9431010C94170BA7
:1000A0000C9431010C9431010C94B4060C94310180
:1000B0000C9431010C9431010C9431010C9486069E
:1000C0000C9431010C9431010C9431010C94AE0468
:1000D0000C94BE030C9431010C947B040C947F03AC
:1000E0000C9431017005730566056A05AA0577054C
:1000F0007B058105850589058F0593059705AA056B
:100100009D05A105A50500002100240027002A0067
:100110002D003000330001010000040107010A0135
:1001200000002200250028002B002E0031003400A2
:1001300002010000050108010B0105050505070581
:1001400008080808020202020A0A08080404040453
:10015000010101010101010103030303030303037F
:10016000040707070C0C0C0C0C0C0C0C020202020E
:1001700006060606060606060B0B0B0B0B0B0B0BF7
:1001800001021020200808102040102040800201A9
:10019000020108040201010204081020408080408E
:1001A000201008040201800402018040201008048D
:1001B000020108040201010204081020408001022B
:1001C0000408102040800000090A02080B0C0D07EB
:1001D0000603040100000000000000000000000011
:1001E000000000000000000000000000000000000F
:1001F000000011100F0000000000000000000000CF
:10020000000000000000000000000000680E112443
:100210001FBECFEFD1E2DEBFCDBF12E0A0E0B2E063
:10022000E0E4F1E200E00BBF02C007900D92AC36B3
:10023000B107D9F728E0ACE6B2E001C01D92A230C8
:10024000B207E1F711E0C7E0D1E004C02197FE0159
:100250000E949510C630D107C9F70E94A90C0C94D2
:1002600023100C9400008091050490E02091060476
:10027000821B91090895CF92DF92EF92FF92CF9364
:10028000DF93EC01603282E078070CF03DC077FD2F
:1002900006C0653B71052CF064EB70E002C060E0C5
:1002A00070E0898128E830E06901C81AD10887FD2B
:1002B000D394CC0CDD1CCC0CDD1C0D2C000CEE08FA
:1002C000FF088A8128E532E0281B310987FD339534
:1002D000220F331F220F331FC901330FAA0BBB0B91
:1002E0009C01AD012C193D094E095F09DB010E94FB
:1002F000501024EB30E040E050E00E942610C20E87
:10030000D31EE41EF51EB6013881303380F52981F5
:1003100088E890E0821B910927FD9395880F991F2B
:10032000880F991F6817790784F08A8148E552E0A1
:10033000481B510987FD5395440F551F440F551F06
:10034000CB01461757070CF4CA014FB7F894232F77
:1003500030E0F901EE0FFF1F2E0F3F1FF901EA53A6
:10036000F94F0297880F991F928381834FBFDF91C6
:10037000CF91FF90EF90DF90CF9008950F931F9350
:10038000CF93DF93FC01A685B7858D01005C1F4FDD
:10039000E8018881998101968F739927AD014E5BA1
:1003A0005F4FEA012881398128173907D1F3E80125
:1003B00028813981A20FB31F6C93A685B785A05CF5
:1003C000BF4F11969C938E93A689B7892C9181E09B
:1003D00090E0078C02C0880F991F0A94E2F7822BE5
:1003E0008C9381E081A30488F589E02D808180646D
:1003F000808381E090E0DF91CF911F910F9108956C
:10040000FC0181A1882329F0A489B5898C9186FFFC
:10041000FBCF11A20895FC01A485B585FD01E05C28
:10042000FF4F2081318132968081918128173907D1
:1004300079F080819181A80FB91F8C912081318141
:100440002F5F3F4F2F7333273183208390E0089530
:100450008FEF9FEF0895DC011C96ED91FC911D97A5
:10046000DF01A05CBF4F2D913C91119712968D91A9
:100470009C9111972817390739F08D919C91E80FBD
:10048000F91F808190E008958FEF9FEF0895FC01A0
:1004900024853585F901E05CFF4F8081918132969A
:1004A00020813181821B930B8F739927089584EAF1
:1004B00096E00E9447028AEF95E00E94470280E59D
:1004C00095E00E94470286EA94E00C944702FB0103
:1004D000E05CFF4F20813181DB01AE5BBF4F4D916E
:1004E0005C912F5F3F4F2F7333274217530741F023
:1004F00040815181DB01A40FB51F8C933183208390
:100500000895CF92DF92EF92FF920F931F93CF93B4
:10051000DF936C01EB017B01E40EF51E00E010E0BF
:10052000CE15DF0561F06991D601ED91FC91019046
:10053000F081E02DC6010995080F191FF1CFC80100
:10054000DF91CF911F910F91FF90EF90DF90CF90AF
:100550000895CF93DF93CB01EA01642F0E94460CEC
:10056000CE01DF91CF910895CF93DF931F92CDB746
:10057000DEB7698361E0CE0101960E94460C81E0FE
:1005800090E00F90DF91CF9108956F927F928F92BC
:100590009F92AF92BF92CF92DF92EF92FF920F9312
:1005A0001F93CF93DF9300D000D000D0CDB7DEB73C
:1005B0008C0188E292E00E947E0A5801C12CD12C65
:1005C00080913403909135038C159D0574F0F501ED
:1005D000819191915F010E94850A85E392E00E94DA
:1005E0007E0AFFEFCF1ADF0AEBCFF80120813181BD
:1005F0002E37310519F5181619060CF48280282DAE
:100600002F7D243479F482309105B4F0F801E48030
:1006100065808230910581F09680039779F0F084AF
:1006200071840CC0823091053CF0F801E480658053
:10063000029711F0F68077808BE6982E882D0E9425
:10064000800A86E392E00E947E0A8E2D962D0E94FB
:10065000850A86E392E00E947E0A8F2D972D0E94E4
:10066000850A86E392E00E946C0A8DE00E94800A6F
:100670008AE00E94800A3E2D462D5F2D672D282D91
:10068000792D80E090E026960FB6F894DEBF0FBE7D
:10069000CDBFDF91CF911F910F91FF90EF90DF9031
:1006A000CF90BF90AF909F908F907F906F90089564
:1006B0003091050420910604321729F082E194E07C
:1006C0000E94CE09F5CF2091FF03283CB8F4209179
:1006D000340330913503A9014F5F5F4F50933503C9
:1006E00040933403220F331FF901E459FD4F9183E6
:1006F00080830A9719F481E08093360308951F924E
:100700000F920FB60F9211240BB60F922F933F93B7
:100710008F939F93EF93FF9320915E0430915F043A
:1007200080916004909161042817390731F4809119
:1007300031018F7D8093310114C0E0916004F0910C
:100740006104E25EFB4F208180916004909161041E
:1007500001968F739927909361048093600420938E
:100760003601FF91EF919F918F913F912F910F90C3
:100770000BBE0F900FBE0F901F9018951F920F92F7
:100780000FB60F9211240BB60F922F933F938F93B6
:100790009F93EF93FF932091080530910905809175
:1007A0000A0590910B052817390731F48091D10083
:1007B0008F7D8093D10014C0E0910A05F0910B0564
:1007C000E853FB4F208180910A0590910B0501961B
:1007D0008F73992790930B0580930A052093D60079
:1007E000FF91EF919F918F913F912F910F900BBEB1
:1007F0000F900FBE0F901F9018951F920F920FB67B
:100800000F9211240BB60F922F933F938F939F93C8
:10081000EF93FF932091B2053091B3058091B40519
:100820009091B5052817390731F48091C9008F7D63
:100830008093C90014C0E091B405F091B505EE585D
:10084000FA4F20818091B4059091B50501968F7380
:1008500099279093B5058093B4052093CE00FF911E
:10086000EF919F918F913F912F910F900BBE0F9021
:100870000FBE0F901F9018951F920F920FB60F92F8
:1008800011240BB60F922F933F938F939F93EF9367
:10089000FF9320915C0630915D0680915E069091F9
:1008A0005F062817390731F48091C1008F7D80934E
:1008B000C10014C0E0915E06F0915F06E45EF94F5E
:1008C000208180915E0690915F0601968F73992733
:1008D00090935F0680935E062093C600FF91EF9190
:1008E0009F918F913F912F910F900BBE0F900FBE54
:1008F0000F901F9018951F920F920FB60F92112410
:100900000BB60F922F933F934F935F936F937F9309
:100910008F939F93AF93BF93EF93FF938091300199
:1009200082FD07C08091360162E674E00E94670292
:1009300002C080913601FF91EF91BF91AF919F91DD
:100940008F917F916F915F914F913F912F910F9078
:100950000BBE0F900FBE0F901F9018951F920F9215
:100960000FB60F9211240BB60F922F933F934F9314
:100970005F936F937F938F939F93AF93BF93EF9307
:10098000FF938091D00082FD07C08091D6006CE07B
:1009900075E00E94670202C08091D600FF91EF913E
:1009A000BF91AF919F918F917F916F915F914F9187
:1009B0003F912F910F900BBE0F900FBE0F901F9085
:1009C00018951F920F920FB60F9211240BB60F922B
:1009D0002F933F934F935F936F937F938F939F9347
:1009E000AF93BF93EF93FF938091C80082FD07C040
:1009F0008091CE0066EB75E00E94670202C0809194
:100A0000CE00FF91EF91BF91AF919F918F917F9118
:100A10006F915F914F913F912F910F900BBE0F906F
:100A20000FBE0F901F9018951F920F920FB60F9246
:100A300011240BB60F922F933F934F935F936F93B5
:100A40007F938F939F93AF93BF93EF93FF93809187
:100A5000C00082FD07C08091C60060E676E00E947B
:100A6000670202C08091C600FF91EF91BF91AF91E4
:100A70009F918F917F916F915F914F913F912F91B6
:100A80000F900BBE0F900FBE0F901F901895362F32
:100A900090E0FC01EA53FE4F4491FC01E058FE4F08
:100AA0002491FC01E65CFE4F8491882309F466C022
:100AB000442309F44FC050E0FA013197E131F105C8
:100AC00008F048C0EE58FF4F0C94951090918000AC
:100AD0009F7703C0909180009F7D909380003AC0E3
:100AE00094B59F7702C094B59F7D94BD33C090911B
:100AF000B0009F7703C09091B0009F7D9093B000AD
:100B000029C0909190009F7707C0909190009F7DA1
:100B100003C090919000977F909390001BC090919C
:100B2000A0009F7707C09091A0009F7D03C0909187
:100B3000A000977F9093A0000DC0909120019F7717
:100B400007C0909120019F7D03C090912001977F65
:100B500090932001E82FF0E0EE0FFF1FE05EFE4FC4
:100B6000A591B4919FB7F894311104C08C91209550
:100B7000282302C0EC912E2B2C939FBF0895CF9277
:100B8000DF92EF92FF920F931F93CF93DF936C014D
:100B90008B017A01EC01CF5FDB4F888187FF04C0B6
:100BA000FB011182108224C02CE02C9DC0012D9DE0
:100BB000900D11242881AC01420F511D27FD5A953B
:100BC0002091560730E04217530794F42881AC0176
:100BD000420F511D27FD5A959A01FA01EE0FFF1F92
:100BE0002E0F3F1FF901EA53F94F208126FD19C04E
:100BF00088818F5F88832CE02C9DC0012D9D900DF6
:100C000011242881AC01420F511D27FD5A952091D6
:100C1000560730E042175307BCF428812C3044F1CA
:100C200013C02881820F911D27FD9A95FC01EE0FBC
:100C3000FF1F8E0F9F1FFC01EA53F94F808160E078
:100C40008F730E944705D4CFF8018081918104966B
:100C500080349C4918F480E49CE904C0F801808148
:100C600091810496F701918380838FEF888345C03B
:100C7000F801408151812881BC01620F711D27FD5F
:100C80007A959B01FB01EE0FFF1F2E0F3F1FF9010D
:100C9000EA53F94F21813281240F351FF701318347
:100CA00020832881AC01420F511D27FD5A959A01DE
:100CB000FA01EE0FFF1F2E0F3F1FF901EA53F94F04
:100CC000208126FF1AC02881820F911D27FD9A9549
:100CD000FC01EE0FFF1F8E0F9F1FFC01EA53F94F1F
:100CE000808161E08F73DF91CF911F910F91FF9011
:100CF000EF90DF90CF900C944705DF91CF911F913B
:100D00000F91FF90EF90DF90CF9008951F920F9278
:100D10000FB60F9211240BB60F922F933F934F9360
:100D20005F936F937F938F939F93AF93BF93EF9353
:100D3000FF9348E251E064E271E080E090E00E94BD
:100D4000BF05FF91EF91BF91AF919F918F917F91DF
:100D50006F915F914F913F912F910F900BBE0F902C
:100D60000FBE0F901F9018951F920F920FB60F9203
:100D700011240BB60F922F933F934F935F936F9372
:100D80007F938F939F93AF93BF93EF93FF9348EA23
:100D900050E064EA70E083E090E00E94BF05FF91BC
:100DA000EF91BF91AF919F918F917F916F915F91E3
:100DB0004F913F912F910F900BBE0F900FBE0F9050
:100DC0001F9018951F920F920FB60F9211240BB619
:100DD0000F922F933F934F935F936F937F938F93D4
:100DE0009F93AF93BF93EF93FF9348E950E064E97B
:100DF00070E082E090E00E94BF05FF91EF91BF910B
:100E0000AF919F918F917F916F915F914F913F91A2
:100E10002F910F900BBE0F900FBE0F901F90189543
:100E20001F920F920FB60F9211240BB60F922F93B1
:100E30003F934F935F936F937F938F939F93AF9362
:100E4000BF93EF93FF9348E850E064E870E081E0DF
:100E500090E00E94BF05FF91EF91BF91AF919F91EC
:100E60008F917F916F915F914F913F912F910F9053
:100E70000BBE0F900FBE0F901F901895CF93DF936E
:100E8000EC0160E08E810E94470561E08E810E9446
:100E9000470560E08E810E9447058AE891E001974E
:100EA000F1F7DF91CF910895CF93DF9390E0FC01AC
:100EB000E058FE4F2491FC01E65CFE4F84918823AC
:100EC00061F190E0880F991FFC01EA5FFE4FC59128
:100ED000D491FC01E05EFE4FA591B491611109C06F
:100EE0009FB7F8948881209582238883EC912E23E4
:100EF0000BC0623061F49FB7F8948881322F30952F
:100F000083238883EC912E2B2C939FBF06C08FB731
:100F1000F894E8812E2B28838FBFDF91CF9108951D
:100F20001F93CF93DF93EC01162F8881803308F055
:100F30004EC061E0812F0E9454078881E82FF0E0C5
:100F40009F01220F331FE20FF31FEA53F94F1F7364
:100F50009081907C192B108319821A826CE00E9478
:100F600089109CE0899FB001112440E050E09B0172
:100F7000240F351FF901EE0FFF1F2E0F3F1FF90140
:100F8000EA53F94F908196FD16C04F5F5F4F4C308A
:100F9000510569F7813001F51092800082E080935D
:100FA00081001092850010928400B19A80916F00A8
:100FB000826080936F00E881F0E0CF01880F991F75
:100FC000E80FF91FEA53F94F80818064808388819C
:100FD000DF91CF911F910895823061F410929000BB
:100FE00080939100109295001092940088BB80939A
:100FF0007100E1CF833069F41092A00082E0809309
:10100000A1001092A5001092A40089BB80937200E9
:10101000D2CF8111D0CF1092200182E080932101A4
:1010200010922501109224018ABB80937300C3CFD4
:10103000AF92BF92CF92DF92EF92FF920F931F93E6
:10104000CF93DF935C017C0187E0E80EF11CC0E0E8
:10105000D0E0062F10E0670161E0F70181917F0188
:101060000E945407B8010C2E02C0759567950A942A
:10107000E2F76170F60180810E9447052196C43035
:10108000D10549F7C501DF91CF911F910F91FF90D5
:10109000EF90DF90CF90BF90AF900C943E07AF924F
:1010A000BF92CF92DF92EF92FF920F931F93CF9355
:1010B000DF93EC01F62E642F8C810E9447058D8111
:1010C0008F3F19F060E00E9447058F850F2D10E0DB
:1010D00084FF2DC05E0187E0A80EB11CE12CF12C2D
:1010E000650161E0F50181915F010E945407B8013B
:1010F0000E2C02C0759567950A94E2F76170F601AF
:1011000080810E944705FFEFEF1AFF0A88E0E8168A
:10111000F10431F7CE01DF91CF911F910F91FF9034
:10112000EF90DF90CF90BF90AF900C943E07B80146
:1011300084E0759567958A95E1F7CE010E941808BD
:101140006F2DCE01DF91CF911F910F91FF90EF9006
:10115000DF90CF90BF90AF900C94180841E00E94B0
:101160004F0881E090E00895CF92DF92EF92FF92D6
:101170000F931F93CF93DF9300D000D000D0CDB753
:10118000DEB75A836B837C838D839E83142F442325
:1011900009F47CC0EA80FB80CC80DD80092F88E3E5
:1011A00092E00E947E0A812F0E94800A86E392E0EC
:1011B0000E947E0A8FE392E00E947E0AC7010E948D
:1011C000850A86E392E00E947E0A85E492E00E940E
:1011D0007E0A802F0E94800A86E392E00E947E0AA7
:1011E0008CE492E00E947E0A8C2D0E94800A86E3A5
:1011F00092E00E947E0A133549F01CF4143449F140
:1012000045C0143631F1133709F040C085EBC816DC
:10121000D104E0F58CE0E816F10421F4B6018FE684
:1012200097E007C08BE0E816F10481F5B6018CE683
:1012300097E026960FB6F894DEBF0FBECDBFDF91C4
:10124000CF911F910F91FF90EF90DF90CF900C9472
:101250003B010F7D073511F461E003C0023521F435
:1012600060E08E2D0E9454076C2D8E2D26960FB6B1
:10127000F894DEBF0FBECDBFDF91CF911F910F91CC
:10128000FF90EF90DF90CF900C94470526960FB615
:10129000F894DEBF0FBECDBFDF91CF911F910F91AC
:1012A000FF90EF90DF90CF9008951F920F920FB6AE
:1012B0000F9211240BB60F922F933F938F939F930E
:1012C000EF93FF938EB59091FF03983CA0F4E091CB
:1012D000FF0391E09E0F9093FF03F0E0EE0FFF1FDE
:1012E000E95CFC4F282F30E0318320838A3019F4E9
:1012F00081E080930004FF91EF919F918F913F9146
:101300002F910F900BBE0F900FBE0F901F9018954E
:1013100085ED8093BC008091BC0084FDFCCF1092D1
:101320000F04089508950895CF93DF93AC01E091E1
:101330000704F09108043097F1F090910604809131
:1013400005049817C0F090E0292F30E026173707E2
:1013500054F4D901AE58B84FEA01C20FD31F288107
:101360002C939F5FF1CF1092060460930504CB018C
:10137000DF91CF910994DF91CF9108950895E09185
:10138000060480910504E81730F4F0E0EE58F84FB9
:10139000808190E008958FEF9FEF0895909106046B
:1013A00080910504981750F4E92FF0E0EE58F84FBB
:1013B000208130E09F5F9093060402C02FEF3FEF43
:1013C000C9010895CF93DF93823028F0909166078A
:1013D00098609093660780936A0710926B078AE380
:1013E0009DE00197F1F760E080915B070E9447055F
:1013F00060E080915D070E94470580915C078F3F08
:1014000019F060E00E9447056091660764FD20C006
:1014100063E087E597E00E941808CAE4D6E4CE01AD
:101420000197F1F763E087E597E00E94180821979C
:10143000F1F763E087E597E00E94180882E592E003
:101440000197F1F762E087E597E00E9418081EC057
:10145000606240E087E597E00E944F088AE496E4E6
:101460000197F1F760916607606240E087E597E0D9
:101470000E944F0882E592E00197F1F760916607BC
:10148000606240E087E597E00E944F086091660740
:10149000606240E087E597E00E944F0884E0809317
:1014A000670740E06CE087E597E00E944F0840E066
:1014B00061E087E597E00E944F088AE39FE101978A
:1014C000F1F782E08093680740E066E087E597E007
:1014D000DF91CF910C944F08009769F0FC010190C7
:1014E0000020E9F73197AF01481B590BBC0184EA92
:1014F00096E00C94810280E090E008950C946C0AD0
:10150000682F84EA96E00C94BE014F925F926F922E
:101510007F92AF92BF92CF92DF92EF92FF920F93A2
:101520001F93CF93DF93CDB7DEB7A1970FB6F89493
:10153000DEBF0FBECDBF6C01990FEE08FF08F7FEAE
:1015400037C08DE20E94800A8C01F094E094D09420
:10155000C094C11CD11CE11CF11C19A29E012F5D7D
:101560003F4F59013AE0432E512C612C712CC70199
:10157000B601A30192010E9458108C2D9AE0299F78
:1015800080191124E1E0AE1AB1088A3014F4805DAC
:1015900001C0895CF501808369017A01232B242B2A
:1015A000252B29F7C5010E946C0A800F911F2AC0C4
:1015B0001C2D7D2DC70119A29E012F5D3F4F790182
:1015C0002AE0422E512C612C712C612FA301920133
:1015D0000E9458108AE0289F1019112491E0E91AFE
:1015E000F1081A3014F4105D01C0195CF701108382
:1015F000122F732FCA01232B242B252B31F7C70160
:101600000E946C0AA1960FB6F894DEBF0FBECDBF44
:10161000DF91CF911F910F91FF90EF90DF90CF90CE
:10162000BF90AF907F906F905F904F9008951F9202
:101630000F920FB60F9211240BB60F922F933F9378
:101640004F935F936F937F938F939F93AF93BF93CA
:10165000EF93FF938091B900887F803609F49CC096
:1016600068F5883209F45BC090F4803109F454C005
:1016700038F4882309F4F3C0883009F44DC0F3C06E
:10168000883109F44CC0803209F45DC0ECC080346C
:1016900009F468C048F4803309F455C0883309F070
:1016A000E2C08093DE07D5C0803509F44FC088358D
:1016B00009F45DC0883409F0D6C0D3C0883909F474
:1016C000C4C0A8F4883709F467C038F4883609F430
:1016D00063C0803709F460C0C6C0883809F4B5C05B
:1016E000803909F45FC0803809F0BDC05BC0803B21
:1016F00009F483C038F4803A09F466C0883A09F4E2
:101700007CC0B1C0803C09F4A4C0883C09F4A1C0ED
:10171000883B09F487C0A7C08091010810C0909150
:1017200000088091FF07981770F5E091000881E0AC
:101730008E0F80930008F0E0E152F84F8081809393
:10174000BB0085EC83C08093DE078BC0E09100086E
:1017500081E08E0F809300088091BB00F0E0E152A1
:10176000F84F8083909100088091FF076BC0E09153
:10177000000881E08E0F809300088091BB00F0E0AC
:10178000E152F84F80838091110481116AC081E099
:101790008093100484EA5EC083E080930F0410926B
:1017A000DD07CFCF8091DD07803208F04EC0E09199
:1017B000DD0781E08E0F8093DD078091BB00F0E0B4
:1017C000E354F84F8083BDCF8091DD07803230F441
:1017D000E091DD07F0E0E354F84F10820E948809A1
:1017E0006091DD0770E0E0910D04F0910E048DEB47
:1017F00097E009951092DD072CC084E080930F04D8
:101800001092BC071092BB07E0910B04F0910C04FE
:1018100009958091BB07811105C081E08093BB07CA
:1018200010929B07E091BC0781E08E0F8093BC076C
:10183000F0E0E556F84F80818093BB009091BC07A3
:101840008091BB07981708F47CCF85E88093BC0093
:101850000AC085EC8093BC0010920F0404C0109263
:10186000DE070E948809FF91EF91BF91AF919F9190
:101870008F917F916F915F914F913F912F910F9039
:101880000BBE0F900FBE0F901F901895613298F409
:1018900020910F04243089F46093BB07282FABE913
:1018A000B7E0FC018E2F821B861718F481918D936F
:1018B000F9CF80E0089581E0089582E008951F92B5
:1018C0000F920FB60F9211242F933F938F939F93F4
:1018D000AF93BF938091970790919807A091990734
:1018E000B0919A073091960723E0230F2D3720F40B
:1018F0000196A11DB11D05C026E8230F0296A11D6A
:10190000B11D209396078093970790939807A09313
:101910009907B0939A078091920790919307A091AD
:101920009407B09195070196A11DB11D8093920770
:1019300090939307A0939407B0939507BF91AF91AD
:101940009F918F913F912F910F900FBE0F901F90FD
:101950001895CF93DF93CDB7DEB72C970FB6F894D9
:10196000DEBF0FBECDBF789484B5826084BD84B5E0
:10197000816084BD85B5826085BD85B5816085BD8A
:1019800080916E00816080936E0010928100809142
:1019900081008260809381008091810081608093CA
:1019A0008100809180008160809380008091B100EF
:1019B00084608093B1008091B00081608093B0001A
:1019C000809191008260809391008091910081606C
:1019D000809391008091900081608093900080912D
:1019E000A10082608093A1008091A100816080931A
:1019F000A1008091A00081608093A00080912101CE
:101A00008260809321018091210181608093210176
:101A10008091200181608093200180917A00846010
:101A200080937A0080917A00826080937A0080911E
:101A30007A00816080937A0080917A008068809338
:101A40007A001092C100E091B806F091B90681E0E9
:101A500090E09C010090C40602C0220F331F0A943C
:101A6000E2F72083E091B406F091B5061082E09190
:101A7000B606F091B70620E120831092C506E091EA
:101A8000BA06F091BB0640819C010090C00602C0DE
:101A9000220F331F0A94E2F7242B2083E091BA0629
:101AA000F091BB0640819C010090C10602C0220F4C
:101AB000331F0A94E2F7242B2083E091BA06F091B9
:101AC000BB0640819C010090C20602C0220F331F5A
:101AD0000A94E2F7242B2083E091BA06F091BB062A
:101AE00020810090C30602C0880F991F0A94E2F774
:101AF0008095822380836CE070E08FE697E00E94FF
:101B000090076AE570E08FE697E00E943B016BE08A
:101B100070E08CE697E00E9490076AE570E08CE642
:101B200097E00E943B0182E00E94E20961E082E3CB
:101B30000E9454078CB580688CBD1092FF038CB551
:101B400080648CBD88E08093BA0083E999E090932B
:101B50000C0480930B0484E999E090930E04809325
:101B60000D04109206041092050410920A041092BB
:101B7000090410920F0481E0809311041092100464
:101B800061E084E10E94470561E085E10E9447052C
:101B90008091B9008E7F8093B9008091B9008D7FCC
:101BA0008093B90088E48093B80085E48093BC00FA
:101BB00088E593E09093080480930704109236031D
:101BC0001092000461E08AE00E94540780910004B2
:101BD0008823A9F1E091FF03F0E0EE0FFF1FE95C1D
:101BE000FC4F1182108261E08DE00E94470560E0A9
:101BF0008DE00E94470587E393E00E94C5022F8392
:101C0000388749875A876B877C871092FF03109229
:101C1000000461E08DE00E94470585E592E00E94A6
:101C20006C0A8DE00E94800A8AE00E94800A4F813F
:101C3000588569857A858B859C850E94B40880913A
:101C40003603882309F441C085E692E00E947E0AAB
:101C50009CE6C92E92E0D92EE12CF12C00913403A0
:101C6000109135030E151F0574F0F60181919191C5
:101C70006F010E94850A85E392E00E947E0AFFEFD1
:101C8000EF1AFF0AEBCF8AE00E94800A000F111FB3
:101C9000F801E459FD4F118210828CE692E00E9417
:101CA000C502F42FE52FCB0129833A83FB83EC8314
:101CB0006D839E8310923503109234031092360385
:101CC000A9016F2F7E2F0E94B4080E9457027ECF79
:101CD000CF93DF93109215041092140488EE93E0D2
:101CE000A0E0B0E08093160490931704A09318042A
:101CF000B093190424E032E03093130420931204CB
:101D00001092A7061092A6068093A8069093A906A3
:101D1000A093AA06B093AB06E4E1F2E0F093A50627
:101D2000E093A40620E636E03093B1062093B00697
:101D30002CE136E03093B3062093B20625EC30E078
:101D40003093B5062093B40624EC30E03093B70608
:101D50002093B60620EC30E03093B9062093B80605
:101D600021EC30E03093BB062093BA0622EC30E041
:101D70003093BD062093BC0626EC30E03093BF06BE
:101D80002093BE0664E06093C00653E05093C10602
:101D900047E04093C20635E03093C30621E020932C
:101DA000C4061092FD051092FC058093FE059093E9
:101DB000FF05A0930006B0930106F093FB05E093A6
:101DC000FA05C6EBD5E0D0930706C0930606C2E736
:101DD000D5E0D0930906C0930806CDECD0E0D093AF
:101DE0000B06C0930A06CCECD0E0D0930D06C0934E
:101DF0000C06C8ECD0E0D0930F06C0930E06C9ECD9
:101E0000D0E0D0931106C0931006CAECD0E0D09376
:101E10001306C0931206CEECD0E0D0931506C09303
:101E200014066093160650931706409318063093D5
:101E3000190620931A0610925305109252058093AA
:101E4000540590935505A0935605B0935705F0930C
:101E50005105E0935005CCE0D5E0D0935D05C093EB
:101E60005C05C8ECD4E0D0935F05C0935E05C5ED7A
:101E7000D0E0D0936105C0936005C4EDD0E0D0936D
:101E80006305C0936205C0EDD0E0D0936505C093B3
:101E90006405C1EDD0E0D0936705C0936605C2ED3F
:101EA000D0E0D0936905C0936805C6EDD0E0D0932B
:101EB0006B05C0936A0560936C0550936D05409364
:101EC0006E0530936F05209370051092A90410924F
:101ED000A8048093AA049093AB04A093AC04B0939D
:101EE000AD04F093A704E093A60482E694E09093F7
:101EF000B3048093B2048EE194E09093B504809390
:101F0000B40485E391E09093B7048093B60484E32E
:101F100091E09093B9048093B80480E391E09093AA
:101F2000BB048093BA0481E391E09093BD04809355
:101F3000BC0482E391E09093BF048093BE0486E3E7
:101F400091E09093C1048093C0046093C2045093C5
:101F5000C3044093C4043093C5042093C604809105
:101F600056078033A0F491E0980F90935607809322
:101F70006F0790E0FC01EE0FFF1F8E0F9F1FFC010B
:101F8000EA53F94F88EB9BE09283818303C08FEF84
:101F900080936F07809156078033A0F491E0980FEB
:101FA0009093560780936C0790E0FC01EE0FFF1FA3
:101FB0008E0F9F1FFC01EA53F94F88EB9BE0928341
:101FC000818303C08FEF80936C0710925A071092A1
:101FD000590784E292E0909358078093570781E075
:101FE00080935B078FEF80935C0782E080935D07AF
:101FF00084E080935E0785E080935F0786E08093AE
:10200000600787E080936107109262071092630770
:10201000109264071092650761E081E00E94540706
:1020200080915C078F3F19F061E00E94540761E0E6
:1020300080915D070E9454071092660781E0DF914E
:10204000CF910C94E209F8940C949E10052E97FB06
:102050001EF400940E943D1057FD07D00E945810B6
:1020600007FC03D04EF40C943D10509540953095EC
:1020700021953F4F4F4F5F4F0895909580957095F4
:1020800061957F4F8F4F9F4F08950E947A10A59FB3
:10209000900DB49F900DA49F800D911D1124089563
:1020A000B7FF0C9445100E944510821B930B0895B6
:1020B000A1E21A2EAA1BBB1BFD010DC0AA1FBB1F4C
:1020C000EE1FFF1FA217B307E407F50720F0A21BBE
:1020D000B30BE40BF50B661F771F881F991F1A942B
:1020E00069F760957095809590959B01AC01BD0155
:1020F000CF010895A29FB001B39FC001A39F700DAF
:10210000811D1124911DB29F700D811D1124911DFF
:102110000895991B79E004C0991F961708F0961B43
:10212000881F7A95C9F780950895EE0FFF1F002448
:10213000001C0BBE0790F691E02D0994F894FFCF98
:1021400000000000B402A9023301CE09BF09BE0994
:1021500000000000BE01810247020B022B020002B8
:1021600000000000AE088102693263206275666675
:1021700065723A20002C2000547970653A20005096
:10218000696E3A20004D6F64653A200041637469BE
:102190006F6E3A2000676F7420737069206D6573ED
:0C21A00073616765006932633A2000003B
:00000001FF
